{
  "_format": "hh-sol-artifact-1",
  "contractName": "YourName_SupplyChain",
  "sourceName": "contracts/ZainMehdi_SupplyChain.sol",
  "abi": [
    {
      "inputs": [],
      "stateMutability": "nonpayable",
      "type": "constructor"
    },
    {
      "anonymous": false,
      "inputs": [
        {
          "indexed": true,
          "internalType": "uint256",
          "name": "productId",
          "type": "uint256"
        },
        {
          "indexed": false,
          "internalType": "address",
          "name": "from",
          "type": "address"
        },
        {
          "indexed": false,
          "internalType": "address",
          "name": "to",
          "type": "address"
        },
        {
          "indexed": false,
          "internalType": "enum YourName_SupplyChain.Status",
          "name": "newStatus",
          "type": "uint8"
        }
      ],
      "name": "OwnershipTransferred",
      "type": "event"
    },
    {
      "anonymous": false,
      "inputs": [
        {
          "indexed": true,
          "internalType": "uint256",
          "name": "productId",
          "type": "uint256"
        },
        {
          "indexed": false,
          "internalType": "string",
          "name": "name",
          "type": "string"
        },
        {
          "indexed": false,
          "internalType": "address",
          "name": "manufacturer",
          "type": "address"
        }
      ],
      "name": "ProductRegistered",
      "type": "event"
    },
    {
      "anonymous": false,
      "inputs": [
        {
          "indexed": true,
          "internalType": "address",
          "name": "account",
          "type": "address"
        },
        {
          "indexed": false,
          "internalType": "enum YourName_SupplyChain.Role",
          "name": "role",
          "type": "uint8"
        }
      ],
      "name": "RoleAssigned",
      "type": "event"
    },
    {
      "inputs": [
        {
          "internalType": "address",
          "name": "_account",
          "type": "address"
        },
        {
          "internalType": "enum YourName_SupplyChain.Role",
          "name": "_role",
          "type": "uint8"
        }
      ],
      "name": "assignRole",
      "outputs": [],
      "stateMutability": "nonpayable",
      "type": "function"
    },
    {
      "inputs": [],
      "name": "developerName",
      "outputs": [
        {
          "internalType": "string",
          "name": "",
          "type": "string"
        }
      ],
      "stateMutability": "view",
      "type": "function"
    },
    {
      "inputs": [
        {
          "internalType": "uint256",
          "name": "_productId",
          "type": "uint256"
        }
      ],
      "name": "getHistory",
      "outputs": [
        {
          "components": [
            {
              "internalType": "address",
              "name": "from",
              "type": "address"
            },
            {
              "internalType": "address",
              "name": "to",
              "type": "address"
            },
            {
              "internalType": "enum YourName_SupplyChain.Status",
              "name": "status",
              "type": "uint8"
            },
            {
              "internalType": "uint256",
              "name": "timestamp",
              "type": "uint256"
            }
          ],
          "internalType": "struct YourName_SupplyChain.HistoryEntry[]",
          "name": "",
          "type": "tuple[]"
        }
      ],
      "stateMutability": "view",
      "type": "function"
    },
    {
      "inputs": [],
      "name": "getMyRole",
      "outputs": [
        {
          "internalType": "enum YourName_SupplyChain.Role",
          "name": "",
          "type": "uint8"
        }
      ],
      "stateMutability": "view",
      "type": "function"
    },
    {
      "inputs": [
        {
          "internalType": "uint256",
          "name": "_productId",
          "type": "uint256"
        }
      ],
      "name": "getProduct",
      "outputs": [
        {
          "components": [
            {
              "internalType": "uint256",
              "name": "id",
              "type": "uint256"
            },
            {
              "internalType": "string",
              "name": "name",
              "type": "string"
            },
            {
              "internalType": "string",
              "name": "description",
              "type": "string"
            },
            {
              "internalType": "address",
              "name": "currentOwner",
              "type": "address"
            },
            {
              "internalType": "enum YourName_SupplyChain.Status",
              "name": "status",
              "type": "uint8"
            },
            {
              "internalType": "uint256",
              "name": "timestamp",
              "type": "uint256"
            }
          ],
          "internalType": "struct YourName_SupplyChain.Product",
          "name": "",
          "type": "tuple"
        }
      ],
      "stateMutability": "view",
      "type": "function"
    },
    {
      "inputs": [],
      "name": "owner",
      "outputs": [
        {
          "internalType": "address",
          "name": "",
          "type": "address"
        }
      ],
      "stateMutability": "view",
      "type": "function"
    },
    {
      "inputs": [],
      "name": "productCount",
      "outputs": [
        {
          "internalType": "uint256",
          "name": "",
          "type": "uint256"
        }
      ],
      "stateMutability": "view",
      "type": "function"
    },
    {
      "inputs": [
        {
          "internalType": "uint256",
          "name": "",
          "type": "uint256"
        },
        {
          "internalType": "uint256",
          "name": "",
          "type": "uint256"
        }
      ],
      "name": "productHistory",
      "outputs": [
        {
          "internalType": "address",
          "name": "from",
          "type": "address"
        },
        {
          "internalType": "address",
          "name": "to",
          "type": "address"
        },
        {
          "internalType": "enum YourName_SupplyChain.Status",
          "name": "status",
          "type": "uint8"
        },
        {
          "internalType": "uint256",
          "name": "timestamp",
          "type": "uint256"
        }
      ],
      "stateMutability": "view",
      "type": "function"
    },
    {
      "inputs": [
        {
          "internalType": "uint256",
          "name": "",
          "type": "uint256"
        }
      ],
      "name": "products",
      "outputs": [
        {
          "internalType": "uint256",
          "name": "id",
          "type": "uint256"
        },
        {
          "internalType": "string",
          "name": "name",
          "type": "string"
        },
        {
          "internalType": "string",
          "name": "description",
          "type": "string"
        },
        {
          "internalType": "address",
          "name": "currentOwner",
          "type": "address"
        },
        {
          "internalType": "enum YourName_SupplyChain.Status",
          "name": "status",
          "type": "uint8"
        },
        {
          "internalType": "uint256",
          "name": "timestamp",
          "type": "uint256"
        }
      ],
      "stateMutability": "view",
      "type": "function"
    },
    {
      "inputs": [
        {
          "internalType": "string",
          "name": "_name",
          "type": "string"
        },
        {
          "internalType": "string",
          "name": "_description",
          "type": "string"
        }
      ],
      "name": "registerProduct",
      "outputs": [],
      "stateMutability": "nonpayable",
      "type": "function"
    },
    {
      "inputs": [
        {
          "internalType": "address",
          "name": "",
          "type": "address"
        }
      ],
      "name": "roles",
      "outputs": [
        {
          "internalType": "enum YourName_SupplyChain.Role",
          "name": "",
          "type": "uint8"
        }
      ],
      "stateMutability": "view",
      "type": "function"
    },
    {
      "inputs": [
        {
          "internalType": "uint256",
          "name": "_productId",
          "type": "uint256"
        },
        {
          "internalType": "address",
          "name": "_customer",
          "type": "address"
        }
      ],
      "name": "transferToCustomer",
      "outputs": [],
      "stateMutability": "nonpayable",
      "type": "function"
    },
    {
      "inputs": [
        {
          "internalType": "uint256",
          "name": "_productId",
          "type": "uint256"
        },
        {
          "internalType": "address",
          "name": "_distributor",
          "type": "address"
        }
      ],
      "name": "transferToDistributor",
      "outputs": [],
      "stateMutability": "nonpayable",
      "type": "function"
    },
    {
      "inputs": [
        {
          "internalType": "uint256",
          "name": "_productId",
          "type": "uint256"
        },
        {
          "internalType": "address",
          "name": "_retailer",
          "type": "address"
        }
      ],
      "name": "transferToRetailer",
      "outputs": [],
      "stateMutability": "nonpayable",
      "type": "function"
    }
  ],
  "bytecode": "0x60c06040526009608090815268596f7572204e616d6560b81b60a0526001906200002a908262000110565b503480156200003857600080fd5b50600080546001600160a01b0319163390811782558152600260205260409020805460ff19166001179055620001dc565b634e487b7160e01b600052604160045260246000fd5b600181811c908216806200009457607f821691505b602082108103620000b557634e487b7160e01b600052602260045260246000fd5b50919050565b601f8211156200010b576000816000526020600020601f850160051c81016020861015620000e65750805b601f850160051c820191505b818110156200010757828155600101620000f2565b5050505b505050565b81516001600160401b038111156200012c576200012c62000069565b62000144816200013d84546200007f565b84620000bb565b602080601f8311600181146200017c5760008415620001635750858301515b600019600386901b1c1916600185901b17855562000107565b600085815260208120601f198616915b82811015620001ad578886015182559484019460019091019084016200018c565b5085821015620001cc5787850151600019600388901b60f8161c191681555b5050505050600190811b01905550565b61151e80620001ec6000396000f3fe608060405234801561001057600080fd5b50600436106100e95760003560e01c8063993746421161008c578063c8691b2a11610066578063c8691b2a1461021c578063e0f6ef871461023c578063e229f2cb14610253578063e380beec1461026657600080fd5b806399374642146101c657806399604f40146101e9578063b9db15b4146101fc57600080fd5b80636e3b47fc116100c85780636e3b47fc146101425780637acc0b20146101635780638da5cb5b146101885780638fbd0dcf146101b357600080fd5b8062ba5162146100ee5780633a7d237614610103578063630a195b1461012f575b600080fd5b6101016100fc366004610f2a565b61027b565b005b610116610111366004610f56565b610355565b6040516101269493929190610fa2565b60405180910390f35b61010161013d366004610fd6565b6103af565b3360009081526002602052604090205460ff165b6040516101269190611011565b61017661017136600461102b565b61047d565b6040516101269695949392919061108a565b60005461019b906001600160a01b031681565b6040516001600160a01b039091168152602001610126565b6101016101c136600461112f565b6105d2565b6101566101d436600461119b565b60026020526000908152604090205460ff1681565b6101016101f7366004610f2a565b610858565b61020f61020a36600461102b565b610924565b60405161012691906111bd565b61022f61022a36600461102b565b610ad2565b604051610126919061123c565b61024560055481565b604051908152602001610126565b610101610261366004610f2a565b610ba3565b61026e610c63565b60405161012691906112b5565b6003803360009081526002602052604090205460ff1660048111156102a2576102a2610f78565b146102c85760405162461bcd60e51b81526004016102bf906112c8565b60405180910390fd5b60046001600160a01b03831660009081526002602052604090205460ff1660048111156102f7576102f7610f78565b146103445760405162461bcd60e51b815260206004820152601760248201527f546172676574206d75737420626520437573746f6d657200000000000000000060448201526064016102bf565b61035083836002610cf1565b505050565b6004602052816000526040600020818154811061037157600080fd5b60009182526020909120600390910201805460018201546002909201546001600160a01b0391821694509082169250600160a01b90910460ff169084565b6000546001600160a01b031633146103fe5760405162461bcd60e51b81526020600482015260126024820152712737ba1031b7b73a3930b1ba1037bbb732b960711b60448201526064016102bf565b6001600160a01b0382166000908152600260205260409020805482919060ff1916600183600481111561043357610433610f78565b0217905550816001600160a01b03167f4ac36fa53f167ceb85964be512e01de2a3b8bdb9862f917da079deeeff689b38826040516104719190611011565b60405180910390a25050565b6003602052600090815260409020805460018201805491929161049f906112f3565b80601f01602080910402602001604051908101604052809291908181526020018280546104cb906112f3565b80156105185780601f106104ed57610100808354040283529160200191610518565b820191906000526020600020905b8154815290600101906020018083116104fb57829003601f168201915b50505050509080600201805461052d906112f3565b80601f0160208091040260200160405190810160405280929190818152602001828054610559906112f3565b80156105a65780601f1061057b576101008083540402835291602001916105a6565b820191906000526020600020905b81548152906001019060200180831161058957829003601f168201915b50505050600383015460049093015491926001600160a01b03811692600160a01b90910460ff16915086565b6001803360009081526002602052604090205460ff1660048111156105f9576105f9610f78565b146106165760405162461bcd60e51b81526004016102bf906112c8565b600580549060006106268361132d565b91905055506040518060c00160405280600554815260200186868080601f016020809104026020016040519081016040528093929190818152602001838380828437600092019190915250505090825250604080516020601f870181900481028201810190925285815291810191908690869081908401838280828437600092018290525093855250503360208401525060409091019081524260209182015260055460009081526003825260409020825181559082015160018201906106ed90826113ba565b506040820151600282019061070290826113ba565b5060608201516003820180546001600160a01b039092166001600160a01b03198316811782556080850151926001600160a81b03191617600160a01b83600281111561075057610750610f78565b021790555060a0919091015160049182015560055460009081526020918252604080822081516080810183528381523381860190815292810184815242606083015282546001808201855593865295909420815160039096020180546001600160a01b039687166001600160a01b031991821617825593519281018054939096169383168417865593519094909290916001600160a81b03191617600160a01b83600281111561080257610802610f78565b02179055506060820151816002015550506005547fd810998a0248808a33b20218e71759cb2ec1a182b398350ad606d742587c012c8686336040516108499392919061147a565b60405180910390a25050505050565b6002803360009081526002602052604090205460ff16600481111561087f5761087f610f78565b1461089c5760405162461bcd60e51b81526004016102bf906112c8565b60036001600160a01b03831660009081526002602052604090205460ff1660048111156108cb576108cb610f78565b146109185760405162461bcd60e51b815260206004820152601760248201527f546172676574206d7573742062652052657461696c657200000000000000000060448201526064016102bf565b61035083836001610cf1565b61092c610ebe565b600360008381526020019081526020016000206040518060c001604052908160008201548152602001600182018054610964906112f3565b80601f0160208091040260200160405190810160405280929190818152602001828054610990906112f3565b80156109dd5780601f106109b2576101008083540402835291602001916109dd565b820191906000526020600020905b8154815290600101906020018083116109c057829003601f168201915b505050505081526020016002820180546109f6906112f3565b80601f0160208091040260200160405190810160405280929190818152602001828054610a22906112f3565b8015610a6f5780601f10610a4457610100808354040283529160200191610a6f565b820191906000526020600020905b815481529060010190602001808311610a5257829003601f168201915b505050918352505060038201546001600160a01b0381166020830152604090910190600160a01b900460ff166002811115610aac57610aac610f78565b6002811115610abd57610abd610f78565b81526020016004820154815250509050919050565b606060046000838152602001908152602001600020805480602002602001604051908101604052809291908181526020016000905b82821015610b98576000848152602090819020604080516080810182526003860290920180546001600160a01b039081168452600182015490811694840194909452919290830190600160a01b900460ff166002811115610b6a57610b6a610f78565b6002811115610b7b57610b7b610f78565b815260200160028201548152505081526020019060010190610b07565b505050509050919050565b6001803360009081526002602052604090205460ff166004811115610bca57610bca610f78565b14610be75760405162461bcd60e51b81526004016102bf906112c8565b60026001600160a01b03831660009081526002602052604090205460ff166004811115610c1657610c16610f78565b146109185760405162461bcd60e51b815260206004820152601a60248201527f546172676574206d757374206265204469737472696275746f7200000000000060448201526064016102bf565b60018054610c70906112f3565b80601f0160208091040260200160405190810160405280929190818152602001828054610c9c906112f3565b8015610ce95780601f10610cbe57610100808354040283529160200191610ce9565b820191906000526020600020905b815481529060010190602001808311610ccc57829003601f168201915b505050505081565b6000838152600360208190526040909120908101546001600160a01b03163314610d515760405162461bcd60e51b81526020600482015260116024820152702737ba1031bab93932b73a1037bbb732b960791b60448201526064016102bf565b6003810180546001600160a01b038581166001600160a01b031983168117845590821692859290916001600160a81b031990911617600160a01b836002811115610d9d57610d9d610f78565b0217905550428260040181905550600460008681526020019081526020016000206040518060800160405280836001600160a01b03168152602001866001600160a01b03168152602001856002811115610df957610df9610f78565b815242602091820152825460018082018555600094855293829020835160039092020180546001600160a01b03199081166001600160a01b03938416178255928401519481018054938416959092169485178255604084015193949093926001600160a81b03191617600160a01b836002811115610e7957610e79610f78565b0217905550606082015181600201555050847f0d9d3ad1299833596bec6138aae47314cbb71fb92c7582abed06e22840593ad4828686604051610849939291906114bb565b6040518060c0016040528060008152602001606081526020016060815260200160006001600160a01b0316815260200160006002811115610f0157610f01610f78565b8152602001600081525090565b80356001600160a01b0381168114610f2557600080fd5b919050565b60008060408385031215610f3d57600080fd5b82359150610f4d60208401610f0e565b90509250929050565b60008060408385031215610f6957600080fd5b50508035926020909101359150565b634e487b7160e01b600052602160045260246000fd5b60038110610f9e57610f9e610f78565b9052565b6001600160a01b0385811682528416602082015260808101610fc76040830185610f8e565b82606083015295945050505050565b60008060408385031215610fe957600080fd5b610ff283610f0e565b915060208301356005811061100657600080fd5b809150509250929050565b602081016005831061102557611025610f78565b91905290565b60006020828403121561103d57600080fd5b5035919050565b6000815180845260005b8181101561106a5760208185018101518683018201520161104e565b506000602082860101526020601f19601f83011685010191505092915050565b86815260c0602082015260006110a360c0830188611044565b82810360408401526110b58188611044565b6001600160a01b038716606085015291506110d590506080830185610f8e565b8260a0830152979650505050505050565b60008083601f8401126110f857600080fd5b50813567ffffffffffffffff81111561111057600080fd5b60208301915083602082850101111561112857600080fd5b9250929050565b6000806000806040858703121561114557600080fd5b843567ffffffffffffffff8082111561115d57600080fd5b611169888389016110e6565b9096509450602087013591508082111561118257600080fd5b5061118f878288016110e6565b95989497509550505050565b6000602082840312156111ad57600080fd5b6111b682610f0e565b9392505050565b60208152815160208201526000602083015160c060408401526111e360e0840182611044565b90506040840151601f198483030160608501526112008282611044565b91505060018060a01b036060850151166080840152608084015161122760a0850182610f8e565b5060a084015160c08401528091505092915050565b602080825282518282018190526000919060409081850190868401855b828110156112a857815180516001600160a01b0390811686528782015116878601528581015161128b87870182610f8e565b506060908101519085015260809093019290850190600101611259565b5091979650505050505050565b6020815260006111b66020830184611044565b602080825260119082015270556e617574686f72697a656420726f6c6560781b604082015260600190565b600181811c9082168061130757607f821691505b60208210810361132757634e487b7160e01b600052602260045260246000fd5b50919050565b60006001820161134d57634e487b7160e01b600052601160045260246000fd5b5060010190565b634e487b7160e01b600052604160045260246000fd5b601f821115610350576000816000526020600020601f850160051c810160208610156113935750805b601f850160051c820191505b818110156113b25782815560010161139f565b505050505050565b815167ffffffffffffffff8111156113d4576113d4611354565b6113e8816113e284546112f3565b8461136a565b602080601f83116001811461141d57600084156114055750858301515b600019600386901b1c1916600185901b1785556113b2565b600085815260208120601f198616915b8281101561144c5788860151825594840194600190910190840161142d565b508582101561146a5787850151600019600388901b60f8161c191681555b5050505050600190811b01905550565b6040815282604082015282846060830137600060608483018101919091526001600160a01b03929092166020820152601f909201601f191690910101919050565b6001600160a01b03848116825283166020820152606081016114e06040830184610f8e565b94935050505056fea2646970667358221220cc1c80a1786bbe1f203c235324f2e0335b917db92318797adafa9cda630814df64736f6c63430008180033",
  "linkReferences": {},
  "deployedLinkReferences": {}
}